{
  "contractName": "TestGanache",
  "abi": [
    {
      "inputs": [],
      "stateMutability": "nonpayable",
      "type": "constructor"
    },
    {
      "anonymous": false,
      "inputs": [
        {
          "indexed": false,
          "internalType": "address",
          "name": "owner",
          "type": "address"
        },
        {
          "indexed": false,
          "internalType": "address",
          "name": "smartContract",
          "type": "address"
        }
      ],
      "name": "newContract",
      "type": "event"
    },
    {
      "anonymous": false,
      "inputs": [
        {
          "indexed": false,
          "internalType": "string",
          "name": "message",
          "type": "string"
        }
      ],
      "name": "newMessage",
      "type": "event"
    },
    {
      "inputs": [],
      "name": "owner",
      "outputs": [
        {
          "internalType": "address",
          "name": "",
          "type": "address"
        }
      ],
      "stateMutability": "view",
      "type": "function",
      "constant": true
    },
    {
      "inputs": [],
      "name": "smartContract",
      "outputs": [
        {
          "internalType": "address",
          "name": "",
          "type": "address"
        }
      ],
      "stateMutability": "view",
      "type": "function",
      "constant": true
    },
    {
      "inputs": [
        {
          "internalType": "string",
          "name": "_message",
          "type": "string"
        }
      ],
      "name": "setMessage",
      "outputs": [],
      "stateMutability": "nonpayable",
      "type": "function"
    },
    {
      "inputs": [],
      "name": "getMessage",
      "outputs": [
        {
          "internalType": "string",
          "name": "",
          "type": "string"
        }
      ],
      "stateMutability": "view",
      "type": "function",
      "constant": true
    }
  ],
  "bytecode": "0x60806040526040518060200160405280600081525060029081620000249190620003b1565b503480156200003257600080fd5b50336000806101000a81548173ffffffffffffffffffffffffffffffffffffffff021916908373ffffffffffffffffffffffffffffffffffffffff16021790555030600160006101000a81548173ffffffffffffffffffffffffffffffffffffffff021916908373ffffffffffffffffffffffffffffffffffffffff1602179055507fe4f1e239ef633924ba611260f27425b0855d45f598b69b49f08f8dd9b2cc0fac60008054906101000a900473ffffffffffffffffffffffffffffffffffffffff16600160009054906101000a900473ffffffffffffffffffffffffffffffffffffffff1660405162000129929190620004dd565b60405180910390a16200050a565b600081519050919050565b7f4e487b7100000000000000000000000000000000000000000000000000000000600052604160045260246000fd5b7f4e487b7100000000000000000000000000000000000000000000000000000000600052602260045260246000fd5b60006002820490506001821680620001b957607f821691505b602082108103620001cf57620001ce62000171565b5b50919050565b60008190508160005260206000209050919050565b60006020601f8301049050919050565b600082821b905092915050565b600060088302620002397fffffffffffffffffffffffffffffffffffffffffffffffffffffffffffffffff82620001fa565b620002458683620001fa565b95508019841693508086168417925050509392505050565b6000819050919050565b6000819050919050565b6000620002926200028c62000286846200025d565b62000267565b6200025d565b9050919050565b6000819050919050565b620002ae8362000271565b620002c6620002bd8262000299565b84845462000207565b825550505050565b600090565b620002dd620002ce565b620002ea818484620002a3565b505050565b5b81811015620003125762000306600082620002d3565b600181019050620002f0565b5050565b601f82111562000361576200032b81620001d5565b6200033684620001ea565b8101602085101562000346578190505b6200035e6200035585620001ea565b830182620002ef565b50505b505050565b600082821c905092915050565b6000620003866000198460080262000366565b1980831691505092915050565b6000620003a1838362000373565b9150826002028217905092915050565b620003bc8262000137565b67ffffffffffffffff811115620003d857620003d762000142565b5b620003e48254620001a0565b620003f182828562000316565b600060209050601f83116001811462000429576000841562000414578287015190505b62000420858262000393565b86555062000490565b601f1984166200043986620001d5565b60005b8281101562000463578489015182556001820191506020850194506020810190506200043c565b868310156200048357848901516200047f601f89168262000373565b8355505b6001600288020188555050505b505050505050565b600073ffffffffffffffffffffffffffffffffffffffff82169050919050565b6000620004c58262000498565b9050919050565b620004d781620004b8565b82525050565b6000604082019050620004f46000830185620004cc565b620005036020830184620004cc565b9392505050565b610852806200051a6000396000f3fe608060405234801561001057600080fd5b506004361061004c5760003560e01c8063368b8772146100515780638da5cb5b1461006d578063ce6d41de1461008b578063f62639e5146100a9575b600080fd5b61006b60048036038101906100669190610348565b6100c7565b005b610075610112565b60405161008291906103d2565b60405180910390f35b610093610136565b6040516100a0919061046c565b60405180910390f35b6100b16101c8565b6040516100be91906103d2565b60405180910390f35b80600290816100d691906106a4565b507fb6b9255ef41b64a179028fa358d210c528409790c6daf4907f41fcba571e1112600260405161010791906107fa565b60405180910390a150565b60008054906101000a900473ffffffffffffffffffffffffffffffffffffffff1681565b606060028054610145906104bd565b80601f0160208091040260200160405190810160405280929190818152602001828054610171906104bd565b80156101be5780601f10610193576101008083540402835291602001916101be565b820191906000526020600020905b8154815290600101906020018083116101a157829003601f168201915b5050505050905090565b600160009054906101000a900473ffffffffffffffffffffffffffffffffffffffff1681565b6000604051905090565b600080fd5b600080fd5b600080fd5b600080fd5b6000601f19601f8301169050919050565b7f4e487b7100000000000000000000000000000000000000000000000000000000600052604160045260246000fd5b6102558261020c565b810181811067ffffffffffffffff821117156102745761027361021d565b5b80604052505050565b60006102876101ee565b9050610293828261024c565b919050565b600067ffffffffffffffff8211156102b3576102b261021d565b5b6102bc8261020c565b9050602081019050919050565b82818337600083830152505050565b60006102eb6102e684610298565b61027d565b90508281526020810184848401111561030757610306610207565b5b6103128482856102c9565b509392505050565b600082601f83011261032f5761032e610202565b5b813561033f8482602086016102d8565b91505092915050565b60006020828403121561035e5761035d6101f8565b5b600082013567ffffffffffffffff81111561037c5761037b6101fd565b5b6103888482850161031a565b91505092915050565b600073ffffffffffffffffffffffffffffffffffffffff82169050919050565b60006103bc82610391565b9050919050565b6103cc816103b1565b82525050565b60006020820190506103e760008301846103c3565b92915050565b600081519050919050565b600082825260208201905092915050565b60005b8381101561042757808201518184015260208101905061040c565b60008484015250505050565b600061043e826103ed565b61044881856103f8565b9350610458818560208601610409565b6104618161020c565b840191505092915050565b600060208201905081810360008301526104868184610433565b905092915050565b7f4e487b7100000000000000000000000000000000000000000000000000000000600052602260045260246000fd5b600060028204905060018216806104d557607f821691505b6020821081036104e8576104e761048e565b5b50919050565b60008190508160005260206000209050919050565b60006020601f8301049050919050565b600082821b905092915050565b6000600883026105507fffffffffffffffffffffffffffffffffffffffffffffffffffffffffffffffff82610513565b61055a8683610513565b95508019841693508086168417925050509392505050565b6000819050919050565b6000819050919050565b60006105a161059c61059784610572565b61057c565b610572565b9050919050565b6000819050919050565b6105bb83610586565b6105cf6105c7826105a8565b848454610520565b825550505050565b600090565b6105e46105d7565b6105ef8184846105b2565b505050565b5b81811015610613576106086000826105dc565b6001810190506105f5565b5050565b601f82111561065857610629816104ee565b61063284610503565b81016020851015610641578190505b61065561064d85610503565b8301826105f4565b50505b505050565b600082821c905092915050565b600061067b6000198460080261065d565b1980831691505092915050565b6000610694838361066a565b9150826002028217905092915050565b6106ad826103ed565b67ffffffffffffffff8111156106c6576106c561021d565b5b6106d082546104bd565b6106db828285610617565b600060209050601f83116001811461070e57600084156106fc578287015190505b6107068582610688565b86555061076e565b601f19841661071c866104ee565b60005b828110156107445784890151825560018201915060208501945060208101905061071f565b86831015610761578489015161075d601f89168261066a565b8355505b6001600288020188555050505b505050505050565b60008154610783816104bd565b61078d81866103f8565b945060018216600081146107a857600181146107be576107f1565b60ff1983168652811515602002860193506107f1565b6107c7856104ee565b60005b838110156107e9578154818901526001820191506020810190506107ca565b808801955050505b50505092915050565b600060208201905081810360008301526108148184610776565b90509291505056fea26469706673582212203327ffda448c67ff33b69e49a19b7743e016dd04bcc3b0033bce0525c756a95f64736f6c63430008130033",
  "immutableReferences": {},
  "source": "// SPDX-License-Identifier: MIT\npragma solidity 0.8.19;\n\ncontract TestGanache {\n    // Direccion del propietario del Smart Contract\n    address public owner;\n\n    // Direccion del Smart Contract\n    address public smartContract;\n\n    // Declaracion del mensaje\n    string message = \"\";\n\n    // Evento de construccion del Smart Contract\n    event newContract(address owner, address smartContract);\n\n    // Evento de publicacion del mensaje\n    event newMessage(string message);\n\n    // Constructor\n    constructor() {\n        owner = msg.sender;\n        smartContract = address(this);\n        emit newContract(owner, smartContract);\n    }\n\n    // Publicar un mensaje a la Blockchain\n    function setMessage(string memory _message) public {\n        message = _message;\n        emit newMessage(message);\n    }\n\n    // Visualizar el mensaje de la Blockchain\n    function getMessage() public view returns (string memory){\n        return message;\n    }\n}\n",
  "sourcePath": "/home/ffbs/Escritorio/work/blockchain/blockchain-carreer/bootcamp/seccion_19/project/contracts/TestGanache.sol",
  "compiler": {
    "name": "solc",
    "version": "0.8.19+commit.7dd6d404.Emscripten.clang"
  },
  "schemaVersion": "3.4.14",
  "updatedAt": "2023-06-17T21:26:13.731Z",
  "networkType": "ethereum",
  "devdoc": {
    "kind": "dev",
    "methods": {},
    "version": 1
  },
  "userdoc": {
    "kind": "user",
    "methods": {},
    "version": 1
  }
}