{
  "contractName": "TokenFarm",
  "abi": [
    {
      "inputs": [
        {
          "internalType": "contract ChisiDefiToken",
          "name": "_chisiToken",
          "type": "address"
        },
        {
          "internalType": "contract JamToken",
          "name": "_jamToken",
          "type": "address"
        }
      ],
      "stateMutability": "nonpayable",
      "type": "constructor"
    },
    {
      "inputs": [],
      "name": "chisiToken",
      "outputs": [
        {
          "internalType": "contract ChisiDefiToken",
          "name": "",
          "type": "address"
        }
      ],
      "stateMutability": "view",
      "type": "function",
      "constant": true
    },
    {
      "inputs": [
        {
          "internalType": "address",
          "name": "",
          "type": "address"
        }
      ],
      "name": "hasStaked",
      "outputs": [
        {
          "internalType": "bool",
          "name": "",
          "type": "bool"
        }
      ],
      "stateMutability": "view",
      "type": "function",
      "constant": true
    },
    {
      "inputs": [
        {
          "internalType": "address",
          "name": "",
          "type": "address"
        }
      ],
      "name": "isStaking",
      "outputs": [
        {
          "internalType": "bool",
          "name": "",
          "type": "bool"
        }
      ],
      "stateMutability": "view",
      "type": "function",
      "constant": true
    },
    {
      "inputs": [],
      "name": "jamToken",
      "outputs": [
        {
          "internalType": "contract JamToken",
          "name": "",
          "type": "address"
        }
      ],
      "stateMutability": "view",
      "type": "function",
      "constant": true
    },
    {
      "inputs": [],
      "name": "name",
      "outputs": [
        {
          "internalType": "string",
          "name": "",
          "type": "string"
        }
      ],
      "stateMutability": "view",
      "type": "function",
      "constant": true
    },
    {
      "inputs": [],
      "name": "owner",
      "outputs": [
        {
          "internalType": "address",
          "name": "",
          "type": "address"
        }
      ],
      "stateMutability": "view",
      "type": "function",
      "constant": true
    },
    {
      "inputs": [
        {
          "internalType": "uint256",
          "name": "",
          "type": "uint256"
        }
      ],
      "name": "stakers",
      "outputs": [
        {
          "internalType": "address",
          "name": "",
          "type": "address"
        }
      ],
      "stateMutability": "view",
      "type": "function",
      "constant": true
    },
    {
      "inputs": [
        {
          "internalType": "address",
          "name": "",
          "type": "address"
        }
      ],
      "name": "stakingBalance",
      "outputs": [
        {
          "internalType": "uint256",
          "name": "",
          "type": "uint256"
        }
      ],
      "stateMutability": "view",
      "type": "function",
      "constant": true
    },
    {
      "inputs": [
        {
          "internalType": "uint256",
          "name": "_amount",
          "type": "uint256"
        }
      ],
      "name": "stakeTokens",
      "outputs": [],
      "stateMutability": "nonpayable",
      "type": "function"
    },
    {
      "inputs": [],
      "name": "unstakeTokens",
      "outputs": [],
      "stateMutability": "nonpayable",
      "type": "function"
    },
    {
      "inputs": [],
      "name": "issueTokens",
      "outputs": [],
      "stateMutability": "nonpayable",
      "type": "function"
    }
  ],
  "bytecode": "0x60806040526040518060400160405280601081526020017f436869736920546f6b656e204661726d00000000000000000000000000000000815250600090805190602001906200005192919062000150565b503480156200005f57600080fd5b506040516200143b3803806200143b83398181016040528101906200008591906200022e565b81600360006101000a81548173ffffffffffffffffffffffffffffffffffffffff021916908373ffffffffffffffffffffffffffffffffffffffff16021790555080600260006101000a81548173ffffffffffffffffffffffffffffffffffffffff021916908373ffffffffffffffffffffffffffffffffffffffff16021790555033600160006101000a81548173ffffffffffffffffffffffffffffffffffffffff021916908373ffffffffffffffffffffffffffffffffffffffff160217905550505062000364565b8280546200015e90620002cb565b90600052602060002090601f016020900481019282620001825760008555620001ce565b82601f106200019d57805160ff1916838001178555620001ce565b82800160010185558215620001ce579182015b82811115620001cd578251825591602001919060010190620001b0565b5b509050620001dd9190620001e1565b5090565b5b80821115620001fc576000816000905550600101620001e2565b5090565b600081519050620002118162000330565b92915050565b60008151905062000228816200034a565b92915050565b600080604083850312156200024257600080fd5b6000620002528582860162000200565b9250506020620002658582860162000217565b9150509250929050565b60006200027c82620002ab565b9050919050565b600062000290826200026f565b9050919050565b6000620002a4826200026f565b9050919050565b600073ffffffffffffffffffffffffffffffffffffffff82169050919050565b60006002820490506001821680620002e457607f821691505b60208210811415620002fb57620002fa62000301565b5b50919050565b7f4e487b7100000000000000000000000000000000000000000000000000000000600052602260045260246000fd5b6200033b8162000283565b81146200034757600080fd5b50565b620003558162000297565b81146200036157600080fd5b50565b6110c780620003746000396000f3fe608060405234801561001057600080fd5b50600436106100a95760003560e01c80638da5cb5b116100715780638da5cb5b14610152578063a5ce413b14610170578063c93c8f341461017a578063cdbdd46b146101aa578063f416d760146101c8578063fd5e6dd1146101e6576100a9565b806306fdde03146100ae57806345bc78ab146100cc57806360ab5852146100fc5780636f49712b146101065780637547c7a314610136575b600080fd5b6100b6610216565b6040516100c39190610cc9565b60405180910390f35b6100e660048036038101906100e19190610a95565b6102a4565b6040516100f39190610d4b565b60405180910390f35b6101046102bc565b005b610120600480360381019061011b9190610a95565b6104db565b60405161012d9190610c78565b60405180910390f35b610150600480360381019061014b9190610ae7565b6104fb565b005b61015a6107ae565b6040516101679190610bfd565b60405180910390f35b6101786107d4565b005b610194600480360381019061018f9190610a95565b6109ab565b6040516101a19190610c78565b60405180910390f35b6101b26109cb565b6040516101bf9190610c93565b60405180910390f35b6101d06109f1565b6040516101dd9190610cae565b60405180910390f35b61020060048036038101906101fb9190610ae7565b610a17565b60405161020d9190610bfd565b60405180910390f35b6000805461022390610e9b565b80601f016020809104026020016040519081016040528092919081815260200182805461024f90610e9b565b801561029c5780601f106102715761010080835404028352916020019161029c565b820191906000526020600020905b81548152906001019060200180831161027f57829003601f168201915b505050505081565b60056020528060005260406000206000915090505481565b600160009054906101000a900473ffffffffffffffffffffffffffffffffffffffff1673ffffffffffffffffffffffffffffffffffffffff163373ffffffffffffffffffffffffffffffffffffffff161461034c576040517f08c379a000000000000000000000000000000000000000000000000000000000815260040161034390610d2b565b60405180910390fd5b60005b6004805490508110156104d857600060048281548110610398577f4e487b7100000000000000000000000000000000000000000000000000000000600052603260045260246000fd5b9060005260206000200160009054906101000a900473ffffffffffffffffffffffffffffffffffffffff1690506000600560008373ffffffffffffffffffffffffffffffffffffffff1673ffffffffffffffffffffffffffffffffffffffff16815260200190815260200160002054905060008111156104c357600360009054906101000a900473ffffffffffffffffffffffffffffffffffffffff1673ffffffffffffffffffffffffffffffffffffffff1663a9059cbb83836040518363ffffffff1660e01b815260040161046f929190610c4f565b602060405180830381600087803b15801561048957600080fd5b505af115801561049d573d6000803e3d6000fd5b505050506040513d601f19601f820116820180604052508101906104c19190610abe565b505b505080806104d090610ecd565b91505061034f565b50565b60076020528060005260406000206000915054906101000a900460ff1681565b6000811161053e576040517f08c379a000000000000000000000000000000000000000000000000000000000815260040161053590610d0b565b60405180910390fd5b600260009054906101000a900473ffffffffffffffffffffffffffffffffffffffff1673ffffffffffffffffffffffffffffffffffffffff166323b872dd3330846040518463ffffffff1660e01b815260040161059d93929190610c18565b602060405180830381600087803b1580156105b757600080fd5b505af11580156105cb573d6000803e3d6000fd5b505050506040513d601f19601f820116820180604052508101906105ef9190610abe565b5080600560003373ffffffffffffffffffffffffffffffffffffffff1673ffffffffffffffffffffffffffffffffffffffff168152602001908152602001600020600082825461063f9190610d82565b92505081905550600660003373ffffffffffffffffffffffffffffffffffffffff1673ffffffffffffffffffffffffffffffffffffffff16815260200190815260200160002060009054906101000a900460ff166106fb576004339080600181540180825580915050600190039060005260206000200160009091909190916101000a81548173ffffffffffffffffffffffffffffffffffffffff021916908373ffffffffffffffffffffffffffffffffffffffff1602179055505b6001600760003373ffffffffffffffffffffffffffffffffffffffff1673ffffffffffffffffffffffffffffffffffffffff16815260200190815260200160002060006101000a81548160ff0219169083151502179055506001600660003373ffffffffffffffffffffffffffffffffffffffff1673ffffffffffffffffffffffffffffffffffffffff16815260200190815260200160002060006101000a81548160ff02191690831515021790555050565b600160009054906101000a900473ffffffffffffffffffffffffffffffffffffffff1681565b6000600560003373ffffffffffffffffffffffffffffffffffffffff1673ffffffffffffffffffffffffffffffffffffffff1681526020019081526020016000205490506000811161085b576040517f08c379a000000000000000000000000000000000000000000000000000000000815260040161085290610ceb565b60405180910390fd5b600260009054906101000a900473ffffffffffffffffffffffffffffffffffffffff1673ffffffffffffffffffffffffffffffffffffffff1663a9059cbb33836040518363ffffffff1660e01b81526004016108b8929190610c4f565b602060405180830381600087803b1580156108d257600080fd5b505af11580156108e6573d6000803e3d6000fd5b505050506040513d601f19601f8201168201806040525081019061090a9190610abe565b506000600560003373ffffffffffffffffffffffffffffffffffffffff1673ffffffffffffffffffffffffffffffffffffffff168152602001908152602001600020819055506000600760003373ffffffffffffffffffffffffffffffffffffffff1673ffffffffffffffffffffffffffffffffffffffff16815260200190815260200160002060006101000a81548160ff02191690831515021790555050565b60066020528060005260406000206000915054906101000a900460ff1681565b600360009054906101000a900473ffffffffffffffffffffffffffffffffffffffff1681565b600260009054906101000a900473ffffffffffffffffffffffffffffffffffffffff1681565b60048181548110610a2757600080fd5b906000526020600020016000915054906101000a900473ffffffffffffffffffffffffffffffffffffffff1681565b600081359050610a658161104c565b92915050565b600081519050610a7a81611063565b92915050565b600081359050610a8f8161107a565b92915050565b600060208284031215610aa757600080fd5b6000610ab584828501610a56565b91505092915050565b600060208284031215610ad057600080fd5b6000610ade84828501610a6b565b91505092915050565b600060208284031215610af957600080fd5b6000610b0784828501610a80565b91505092915050565b610b1981610dd8565b82525050565b610b2881610dea565b82525050565b610b3781610e20565b82525050565b610b4681610e44565b82525050565b6000610b5782610d66565b610b618185610d71565b9350610b71818560208601610e68565b610b7a81610f74565b840191505092915050565b6000610b92602c83610d71565b9150610b9d82610f85565b604082019050919050565b6000610bb5602183610d71565b9150610bc082610fd4565b604082019050919050565b6000610bd8601283610d71565b9150610be382611023565b602082019050919050565b610bf781610e16565b82525050565b6000602082019050610c126000830184610b10565b92915050565b6000606082019050610c2d6000830186610b10565b610c3a6020830185610b10565b610c476040830184610bee565b949350505050565b6000604082019050610c646000830185610b10565b610c716020830184610bee565b9392505050565b6000602082019050610c8d6000830184610b1f565b92915050565b6000602082019050610ca86000830184610b2e565b92915050565b6000602082019050610cc36000830184610b3d565b92915050565b60006020820190508181036000830152610ce38184610b4c565b905092915050565b60006020820190508181036000830152610d0481610b85565b9050919050565b60006020820190508181036000830152610d2481610ba8565b9050919050565b60006020820190508181036000830152610d4481610bcb565b9050919050565b6000602082019050610d606000830184610bee565b92915050565b600081519050919050565b600082825260208201905092915050565b6000610d8d82610e16565b9150610d9883610e16565b9250827fffffffffffffffffffffffffffffffffffffffffffffffffffffffffffffffff03821115610dcd57610dcc610f16565b5b828201905092915050565b6000610de382610df6565b9050919050565b60008115159050919050565b600073ffffffffffffffffffffffffffffffffffffffff82169050919050565b6000819050919050565b6000610e2b82610e32565b9050919050565b6000610e3d82610df6565b9050919050565b6000610e4f82610e56565b9050919050565b6000610e6182610df6565b9050919050565b60005b83811015610e86578082015181840152602081019050610e6b565b83811115610e95576000848401525b50505050565b60006002820490506001821680610eb357607f821691505b60208210811415610ec757610ec6610f45565b5b50919050565b6000610ed882610e16565b91507fffffffffffffffffffffffffffffffffffffffffffffffffffffffffffffffff821415610f0b57610f0a610f16565b5b600182019050919050565b7f4e487b7100000000000000000000000000000000000000000000000000000000600052601160045260246000fd5b7f4e487b7100000000000000000000000000000000000000000000000000000000600052602260045260246000fd5b6000601f19601f8301169050919050565b7f456c2062616c616e63652064656c207374616b696e672064656265207365722060008201527f6d61796f722061206365726f0000000000000000000000000000000000000000602082015250565b7f4c612063616e7469646164206465626520736572206d61796f7220612063657260008201527f6f00000000000000000000000000000000000000000000000000000000000000602082015250565b7f4e6f207469656e6573207065726d69736f730000000000000000000000000000600082015250565b61105581610dd8565b811461106057600080fd5b50565b61106c81610dea565b811461107757600080fd5b50565b61108381610e16565b811461108e57600080fd5b5056fea264697066735822122035edde2474df5f965cf1214b1d04fcd2195fa4700e12c0168bb87e5bfe7536be64736f6c63430008040033",
  "immutableReferences": {},
  "source": "// SPDX-License-Identifier: MIT\npragma solidity ^0.8.4;\n\n// contrato que gestiona todo el proyecto de defi\nimport \"./jamToken.sol\";\nimport \"./chisiDefiToken.sol\";\n\ncontract TokenFarm {\n    string public name = \"Chisi Token Farm\";\n    address public owner;\n\n    // declarar contract importados\n    JamToken public jamToken;\n    ChisiDefiToken public chisiToken;\n\n    // data structures\n    address [] public stakers;\n    // balance por persona, haciendo staking\n    mapping (address => uint) public stakingBalance;\n    // para indicar si una persona ya hizo staking\n    mapping (address => bool) public hasStaked;\n    // para indicar si una persona est haciendo staking\n    mapping (address => bool) public isStaking;\n\n    constructor(ChisiDefiToken _chisiToken, JamToken _jamToken) {\n        chisiToken = _chisiToken;\n        jamToken = _jamToken;\n        owner = msg.sender;\n    }\n\n    // cuando se haga staking, los tokens se enviarn a este contract\n    function stakeTokens(uint _amount) public {\n        // se requiere una cantidad superior a cero\n        require(_amount > 0, \"La cantidad debe ser mayor a cero\");\n\n        // transferir tokens JAM al smart contract principal\n        jamToken.transferFrom(msg.sender, address(this), _amount);\n        // actualizar saldo del staking\n        stakingBalance[msg.sender] += _amount;\n        // guardar el staker:\n        if (!hasStaked[msg.sender]) {\n            stakers.push(msg.sender);\n        }\n        // actualizar el estado del staking\n        isStaking[msg.sender] = true;\n        hasStaked[msg.sender] = true;\n    }\n\n    // funcion para devolver los tokens (quitar staking de los tokens)\n    function unstakeTokens() public {\n        // verificar saldo de staker\n        uint balance = stakingBalance[msg.sender];\n        require(balance > 0, \"El balance del staking debe ser mayor a cero\");\n        // transferir todo los tokens al usuario:\n        jamToken.transfer(msg.sender, balance);\n        // resetear balance de staking de usuario:\n        stakingBalance[msg.sender] = 0;\n        isStaking[msg.sender] = false;\n    }\n\n    // emitir tokens (recompensa):\n    function issueTokens() public {\n        require(msg.sender == owner,\"No tienes permisos\");\n        // emitir tokens a todos los staker actuales (estn o no haciendo staking en el momento):\n        // los tokens de recompensa son los chisiDefiToken\n        for (uint i=0; i<stakers.length; i++) \n        {\n            address recipient = stakers[i];\n            uint balance = stakingBalance[recipient];\n            if (balance > 0) {\n                chisiToken.transfer(recipient, balance);\n            }\n        }\n    }\n}\n\n\n/* Pasos para probar del proyecto Defi:\nDesplegar en orden: JamToken, chisiDefiToken\nDesplegar el TokenFarm, requiere los address de cada los contratos JamToken y chisiDefiToken\n\n1 Verificar que el owner del proyecto tiene todo el balance de jamToken: JamToken.balanceOf(owner_address)\n\n2. Owner enviar una cantidad de tokens a un usuario: JamToken.transfer(_to, _value);\n    2.a Se verifica que el owner ahora tiene menos cantidad en el JamToken.balanceOf(owner_address);\n\n3. Se verifica que el owner tiene todo el balance (de chisiTokens)\n\n4. El tokenFarm debe tener una cantidad de tokens de chisiToken \npara poder hacer el entrega de recompensa por el staking al usuario que dej su token,\npor lo que desde el ChisiDefiToken se le aprueba que pueda operar con una cantidad: ChisiDefiToken.approve(_spender, _value);\n\n5. Usando un usuario diferente al owner, har staking: TokenFarm.stakeTokens(_amount);\n    -precondicin: como el usuario tiene tokens JamToken, desde el contract JamToken se tiene\n    que aprovar una cantidad para que el contract TokenFarm pueda operarlos,\n    se debe poner com spender al smart contract ChisiDefiToken\n\n6. Usando el usuario own er, devolver recompensas,\n    en ChisiDefiToken, se verifica que su balance es menor por lo\n    ocurrido en el punto 4.\n    Se ejecuta la funcin TokenFarm.issueTokens(); y se emitirn recompensas a los stakers activos\n\n7. Usando un usuario diferente al owner, y que sea staker activo,\n    en su balance se verificar que a recibido la cantidad de tokens de tipo \"ChisiDefiToken\" segn la programacin del contrato: \n\n8. Con un usuario que hay recibido recompensa por staking,\n    deja de ser staker activo (retirando sus fondos de ChisiDefiToken) usando TokenFarm.unstakeTokens()\n    se verificar su saldo en el balance de JamToken, \n\n */\n",
  "sourcePath": "/home/ffbs/Escritorio/work/blockchain/blockchain-carreer/bootcamp/seccion_28_DEFI_Dapp/src/contracts/TokenFarm.sol",
  "compiler": {
    "name": "solc",
    "version": "0.8.4+commit.c7e474f2.Emscripten.clang"
  },
  "schemaVersion": "3.4.2",
  "updatedAt": "2024-01-03T02:57:09.981Z",
  "networkType": "ethereum",
  "devdoc": {
    "kind": "dev",
    "methods": {},
    "version": 1
  },
  "userdoc": {
    "kind": "user",
    "methods": {},
    "version": 1
  }
}