{
  "contractName": "customERC20",
  "abi": [
    {
      "inputs": [
        {
          "internalType": "string",
          "name": "_name",
          "type": "string"
        },
        {
          "internalType": "string",
          "name": "_symbol",
          "type": "string"
        }
      ],
      "stateMutability": "nonpayable",
      "type": "constructor"
    },
    {
      "anonymous": false,
      "inputs": [
        {
          "indexed": true,
          "internalType": "address",
          "name": "owner",
          "type": "address"
        },
        {
          "indexed": true,
          "internalType": "address",
          "name": "spender",
          "type": "address"
        },
        {
          "indexed": false,
          "internalType": "uint256",
          "name": "value",
          "type": "uint256"
        }
      ],
      "name": "Approval",
      "type": "event"
    },
    {
      "anonymous": false,
      "inputs": [
        {
          "indexed": true,
          "internalType": "address",
          "name": "from",
          "type": "address"
        },
        {
          "indexed": true,
          "internalType": "address",
          "name": "to",
          "type": "address"
        },
        {
          "indexed": false,
          "internalType": "uint256",
          "name": "value",
          "type": "uint256"
        }
      ],
      "name": "Transfer",
      "type": "event"
    },
    {
      "inputs": [
        {
          "internalType": "address",
          "name": "owner",
          "type": "address"
        },
        {
          "internalType": "address",
          "name": "spender",
          "type": "address"
        }
      ],
      "name": "allowance",
      "outputs": [
        {
          "internalType": "uint256",
          "name": "",
          "type": "uint256"
        }
      ],
      "stateMutability": "nonpayable",
      "type": "function"
    },
    {
      "inputs": [
        {
          "internalType": "address",
          "name": "spender",
          "type": "address"
        },
        {
          "internalType": "uint256",
          "name": "amount",
          "type": "uint256"
        }
      ],
      "name": "approve",
      "outputs": [
        {
          "internalType": "bool",
          "name": "",
          "type": "bool"
        }
      ],
      "stateMutability": "nonpayable",
      "type": "function"
    },
    {
      "inputs": [
        {
          "internalType": "address",
          "name": "account",
          "type": "address"
        }
      ],
      "name": "balanceOf",
      "outputs": [
        {
          "internalType": "uint256",
          "name": "",
          "type": "uint256"
        }
      ],
      "stateMutability": "view",
      "type": "function",
      "constant": true
    },
    {
      "inputs": [],
      "name": "decimals",
      "outputs": [
        {
          "internalType": "uint8",
          "name": "",
          "type": "uint8"
        }
      ],
      "stateMutability": "view",
      "type": "function",
      "constant": true
    },
    {
      "inputs": [
        {
          "internalType": "address",
          "name": "spender",
          "type": "address"
        },
        {
          "internalType": "uint256",
          "name": "subtractedValue",
          "type": "uint256"
        }
      ],
      "name": "decreaseAllowance",
      "outputs": [
        {
          "internalType": "bool",
          "name": "",
          "type": "bool"
        }
      ],
      "stateMutability": "nonpayable",
      "type": "function"
    },
    {
      "inputs": [
        {
          "internalType": "address",
          "name": "spender",
          "type": "address"
        },
        {
          "internalType": "uint256",
          "name": "addedValue",
          "type": "uint256"
        }
      ],
      "name": "increaseAllowance",
      "outputs": [
        {
          "internalType": "bool",
          "name": "",
          "type": "bool"
        }
      ],
      "stateMutability": "nonpayable",
      "type": "function"
    },
    {
      "inputs": [],
      "name": "name",
      "outputs": [
        {
          "internalType": "string",
          "name": "",
          "type": "string"
        }
      ],
      "stateMutability": "view",
      "type": "function",
      "constant": true
    },
    {
      "inputs": [],
      "name": "symbol",
      "outputs": [
        {
          "internalType": "string",
          "name": "",
          "type": "string"
        }
      ],
      "stateMutability": "view",
      "type": "function",
      "constant": true
    },
    {
      "inputs": [],
      "name": "totalSupply",
      "outputs": [
        {
          "internalType": "uint256",
          "name": "",
          "type": "uint256"
        }
      ],
      "stateMutability": "view",
      "type": "function",
      "constant": true
    },
    {
      "inputs": [
        {
          "internalType": "address",
          "name": "to",
          "type": "address"
        },
        {
          "internalType": "uint256",
          "name": "amount",
          "type": "uint256"
        }
      ],
      "name": "transfer",
      "outputs": [
        {
          "internalType": "bool",
          "name": "",
          "type": "bool"
        }
      ],
      "stateMutability": "nonpayable",
      "type": "function"
    },
    {
      "inputs": [
        {
          "internalType": "address",
          "name": "from",
          "type": "address"
        },
        {
          "internalType": "address",
          "name": "to",
          "type": "address"
        },
        {
          "internalType": "uint256",
          "name": "amount",
          "type": "uint256"
        }
      ],
      "name": "transferFrom",
      "outputs": [
        {
          "internalType": "bool",
          "name": "",
          "type": "bool"
        }
      ],
      "stateMutability": "nonpayable",
      "type": "function"
    },
    {
      "inputs": [],
      "name": "createTokens",
      "outputs": [],
      "stateMutability": "nonpayable",
      "type": "function"
    },
    {
      "inputs": [
        {
          "internalType": "address",
          "name": "_account",
          "type": "address"
        },
        {
          "internalType": "uint256",
          "name": "amount",
          "type": "uint256"
        }
      ],
      "name": "destruirTokens",
      "outputs": [],
      "stateMutability": "nonpayable",
      "type": "function"
    }
  ],
  "bytecode": "0x60806040523480156200001157600080fd5b5060405162001e1538038062001e158339818101604052810190620000379190620001fa565b818181600390816200004a9190620004ca565b5080600490816200005c9190620004ca565b5050505050620005b1565b6000604051905090565b600080fd5b600080fd5b600080fd5b600080fd5b6000601f19601f8301169050919050565b7f4e487b7100000000000000000000000000000000000000000000000000000000600052604160045260246000fd5b620000d08262000085565b810181811067ffffffffffffffff82111715620000f257620000f162000096565b5b80604052505050565b60006200010762000067565b9050620001158282620000c5565b919050565b600067ffffffffffffffff82111562000138576200013762000096565b5b620001438262000085565b9050602081019050919050565b60005b838110156200017057808201518184015260208101905062000153565b60008484015250505050565b6000620001936200018d846200011a565b620000fb565b905082815260208101848484011115620001b257620001b162000080565b5b620001bf84828562000150565b509392505050565b600082601f830112620001df57620001de6200007b565b5b8151620001f18482602086016200017c565b91505092915050565b6000806040838503121562000214576200021362000071565b5b600083015167ffffffffffffffff81111562000235576200023462000076565b5b6200024385828601620001c7565b925050602083015167ffffffffffffffff81111562000267576200026662000076565b5b6200027585828601620001c7565b9150509250929050565b600081519050919050565b7f4e487b7100000000000000000000000000000000000000000000000000000000600052602260045260246000fd5b60006002820490506001821680620002d257607f821691505b602082108103620002e857620002e76200028a565b5b50919050565b60008190508160005260206000209050919050565b60006020601f8301049050919050565b600082821b905092915050565b600060088302620003527fffffffffffffffffffffffffffffffffffffffffffffffffffffffffffffffff8262000313565b6200035e868362000313565b95508019841693508086168417925050509392505050565b6000819050919050565b6000819050919050565b6000620003ab620003a56200039f8462000376565b62000380565b62000376565b9050919050565b6000819050919050565b620003c7836200038a565b620003df620003d682620003b2565b84845462000320565b825550505050565b600090565b620003f6620003e7565b62000403818484620003bc565b505050565b5b818110156200042b576200041f600082620003ec565b60018101905062000409565b5050565b601f8211156200047a576200044481620002ee565b6200044f8462000303565b810160208510156200045f578190505b620004776200046e8562000303565b83018262000408565b50505b505050565b600082821c905092915050565b60006200049f600019846008026200047f565b1980831691505092915050565b6000620004ba83836200048c565b9150826002028217905092915050565b620004d5826200027f565b67ffffffffffffffff811115620004f157620004f062000096565b5b620004fd8254620002b9565b6200050a8282856200042f565b600060209050601f8311600181146200054257600084156200052d578287015190505b620005398582620004ac565b865550620005a9565b601f1984166200055286620002ee565b60005b828110156200057c5784890151825560018201915060208501945060208101905062000555565b868310156200059c578489015162000598601f8916826200048c565b8355505b6001600288020188555050505b505050505050565b61185480620005c16000396000f3fe608060405234801561001057600080fd5b50600436106100cf5760003560e01c8063395093511161008c578063a457c2d711610066578063a457c2d714610228578063a9059cbb14610258578063b442726314610288578063dd62ed3e14610292576100cf565b806339509351146101aa57806370a08231146101da57806395d89b411461020a576100cf565b806306fdde03146100d4578063095ea7b3146100f2578063147647241461012257806318160ddd1461013e57806323b872dd1461015c578063313ce5671461018c575b600080fd5b6100dc6102c2565b6040516100e99190610f6d565b60405180910390f35b61010c60048036038101906101079190611028565b610354565b6040516101199190611083565b60405180910390f35b61013c60048036038101906101379190611028565b610370565b005b61014661037e565b60405161015391906110ad565b60405180910390f35b610176600480360381019061017191906110c8565b610388565b6040516101839190611083565b60405180910390f35b6101946103b0565b6040516101a19190611137565b60405180910390f35b6101c460048036038101906101bf9190611028565b6103b9565b6040516101d19190611083565b60405180910390f35b6101f460048036038101906101ef9190611152565b61045c565b60405161020191906110ad565b60405180910390f35b6102126104a4565b60405161021f9190610f6d565b60405180910390f35b610242600480360381019061023d9190611028565b610536565b60405161024f9190611083565b60405180910390f35b610272600480360381019061026d9190611028565b610619565b60405161027f9190611083565b60405180910390f35b610290610635565b005b6102ac60048036038101906102a7919061117f565b610643565b6040516102b991906110ad565b60405180910390f35b6060600380546102d1906111ee565b80601f01602080910402602001604051908101604052809291908181526020018280546102fd906111ee565b801561034a5780601f1061031f5761010080835404028352916020019161034a565b820191906000526020600020905b81548152906001019060200180831161032d57829003601f168201915b5050505050905090565b6000803390506103658185856106ca565b600191505092915050565b61037a8282610893565b5050565b6000600254905090565b600080339050610399858285610a69565b6103a4858585610af5565b60019150509392505050565b60006012905090565b600080339050610451818585600160008673ffffffffffffffffffffffffffffffffffffffff1673ffffffffffffffffffffffffffffffffffffffff16815260200190815260200160002060008973ffffffffffffffffffffffffffffffffffffffff1673ffffffffffffffffffffffffffffffffffffffff1681526020019081526020016000205461044c919061124e565b6106ca565b600191505092915050565b60008060008373ffffffffffffffffffffffffffffffffffffffff1673ffffffffffffffffffffffffffffffffffffffff168152602001908152602001600020549050919050565b6060600480546104b3906111ee565b80601f01602080910402602001604051908101604052809291908181526020018280546104df906111ee565b801561052c5780601f106105015761010080835404028352916020019161052c565b820191906000526020600020905b81548152906001019060200180831161050f57829003601f168201915b5050505050905090565b6000803390506000600160008373ffffffffffffffffffffffffffffffffffffffff1673ffffffffffffffffffffffffffffffffffffffff16815260200190815260200160002060008673ffffffffffffffffffffffffffffffffffffffff1673ffffffffffffffffffffffffffffffffffffffff16815260200190815260200160002054905083811015610600576040517f08c379a00000000000000000000000000000000000000000000000000000000081526004016105f7906112f4565b60405180910390fd5b61060d82868684036106ca565b60019250505092915050565b60008033905061062a818585610af5565b600191505092915050565b610641336103e8610d74565b565b6000600160008473ffffffffffffffffffffffffffffffffffffffff1673ffffffffffffffffffffffffffffffffffffffff16815260200190815260200160002060008373ffffffffffffffffffffffffffffffffffffffff1673ffffffffffffffffffffffffffffffffffffffff16815260200190815260200160002054905092915050565b600073ffffffffffffffffffffffffffffffffffffffff168373ffffffffffffffffffffffffffffffffffffffff1603610739576040517f08c379a000000000000000000000000000000000000000000000000000000000815260040161073090611386565b60405180910390fd5b600073ffffffffffffffffffffffffffffffffffffffff168273ffffffffffffffffffffffffffffffffffffffff16036107a8576040517f08c379a000000000000000000000000000000000000000000000000000000000815260040161079f90611418565b60405180910390fd5b80600160008573ffffffffffffffffffffffffffffffffffffffff1673ffffffffffffffffffffffffffffffffffffffff16815260200190815260200160002060008473ffffffffffffffffffffffffffffffffffffffff1673ffffffffffffffffffffffffffffffffffffffff168152602001908152602001600020819055508173ffffffffffffffffffffffffffffffffffffffff168373ffffffffffffffffffffffffffffffffffffffff167f8c5be1e5ebec7d5bd14f71427d1e84f3dd0314c0f7b2291e5b200ac8c7c3b9258360405161088691906110ad565b60405180910390a3505050565b600073ffffffffffffffffffffffffffffffffffffffff168273ffffffffffffffffffffffffffffffffffffffff1603610902576040517f08c379a00000000000000000000000000000000000000000000000000000000081526004016108f9906114aa565b60405180910390fd5b61090e82600083610ed3565b60008060008473ffffffffffffffffffffffffffffffffffffffff1673ffffffffffffffffffffffffffffffffffffffff16815260200190815260200160002054905081811015610994576040517f08c379a000000000000000000000000000000000000000000000000000000000815260040161098b9061153c565b60405180910390fd5b8181036000808573ffffffffffffffffffffffffffffffffffffffff1673ffffffffffffffffffffffffffffffffffffffff1681526020019081526020016000208190555081600260008282546109eb919061155c565b92505081905550600073ffffffffffffffffffffffffffffffffffffffff168373ffffffffffffffffffffffffffffffffffffffff167fddf252ad1be2c89b69c2b068fc378daa952ba7f163c4a11628f55a4df523b3ef84604051610a5091906110ad565b60405180910390a3610a6483600084610ed8565b505050565b6000610a758484610643565b90507fffffffffffffffffffffffffffffffffffffffffffffffffffffffffffffffff8114610aef5781811015610ae1576040517f08c379a0000000000000000000000000000000000000000000000000000000008152600401610ad8906115dc565b60405180910390fd5b610aee84848484036106ca565b5b50505050565b600073ffffffffffffffffffffffffffffffffffffffff168373ffffffffffffffffffffffffffffffffffffffff1603610b64576040517f08c379a0000000000000000000000000000000000000000000000000000000008152600401610b5b9061166e565b60405180910390fd5b600073ffffffffffffffffffffffffffffffffffffffff168273ffffffffffffffffffffffffffffffffffffffff1603610bd3576040517f08c379a0000000000000000000000000000000000000000000000000000000008152600401610bca90611700565b60405180910390fd5b610bde838383610ed3565b60008060008573ffffffffffffffffffffffffffffffffffffffff1673ffffffffffffffffffffffffffffffffffffffff16815260200190815260200160002054905081811015610c64576040517f08c379a0000000000000000000000000000000000000000000000000000000008152600401610c5b90611792565b60405180910390fd5b8181036000808673ffffffffffffffffffffffffffffffffffffffff1673ffffffffffffffffffffffffffffffffffffffff16815260200190815260200160002081905550816000808573ffffffffffffffffffffffffffffffffffffffff1673ffffffffffffffffffffffffffffffffffffffff1681526020019081526020016000206000828254610cf7919061124e565b925050819055508273ffffffffffffffffffffffffffffffffffffffff168473ffffffffffffffffffffffffffffffffffffffff167fddf252ad1be2c89b69c2b068fc378daa952ba7f163c4a11628f55a4df523b3ef84604051610d5b91906110ad565b60405180910390a3610d6e848484610ed8565b50505050565b600073ffffffffffffffffffffffffffffffffffffffff168273ffffffffffffffffffffffffffffffffffffffff1603610de3576040517f08c379a0000000000000000000000000000000000000000000000000000000008152600401610dda906117fe565b60405180910390fd5b610def60008383610ed3565b8060026000828254610e01919061124e565b92505081905550806000808473ffffffffffffffffffffffffffffffffffffffff1673ffffffffffffffffffffffffffffffffffffffff1681526020019081526020016000206000828254610e56919061124e565b925050819055508173ffffffffffffffffffffffffffffffffffffffff16600073ffffffffffffffffffffffffffffffffffffffff167fddf252ad1be2c89b69c2b068fc378daa952ba7f163c4a11628f55a4df523b3ef83604051610ebb91906110ad565b60405180910390a3610ecf60008383610ed8565b5050565b505050565b505050565b600081519050919050565b600082825260208201905092915050565b60005b83811015610f17578082015181840152602081019050610efc565b60008484015250505050565b6000601f19601f8301169050919050565b6000610f3f82610edd565b610f498185610ee8565b9350610f59818560208601610ef9565b610f6281610f23565b840191505092915050565b60006020820190508181036000830152610f878184610f34565b905092915050565b600080fd5b600073ffffffffffffffffffffffffffffffffffffffff82169050919050565b6000610fbf82610f94565b9050919050565b610fcf81610fb4565b8114610fda57600080fd5b50565b600081359050610fec81610fc6565b92915050565b6000819050919050565b61100581610ff2565b811461101057600080fd5b50565b60008135905061102281610ffc565b92915050565b6000806040838503121561103f5761103e610f8f565b5b600061104d85828601610fdd565b925050602061105e85828601611013565b9150509250929050565b60008115159050919050565b61107d81611068565b82525050565b60006020820190506110986000830184611074565b92915050565b6110a781610ff2565b82525050565b60006020820190506110c2600083018461109e565b92915050565b6000806000606084860312156110e1576110e0610f8f565b5b60006110ef86828701610fdd565b935050602061110086828701610fdd565b925050604061111186828701611013565b9150509250925092565b600060ff82169050919050565b6111318161111b565b82525050565b600060208201905061114c6000830184611128565b92915050565b60006020828403121561116857611167610f8f565b5b600061117684828501610fdd565b91505092915050565b6000806040838503121561119657611195610f8f565b5b60006111a485828601610fdd565b92505060206111b585828601610fdd565b9150509250929050565b7f4e487b7100000000000000000000000000000000000000000000000000000000600052602260045260246000fd5b6000600282049050600182168061120657607f821691505b602082108103611219576112186111bf565b5b50919050565b7f4e487b7100000000000000000000000000000000000000000000000000000000600052601160045260246000fd5b600061125982610ff2565b915061126483610ff2565b925082820190508082111561127c5761127b61121f565b5b92915050565b7f41637475616c6d656e7465207469656e65206d656e6f7320746f6b656e73206460008201527f65206c6f7320717565207365206c6520717569657265207175697461722e0000602082015250565b60006112de603e83610ee8565b91506112e982611282565b604082019050919050565b6000602082019050818103600083015261130d816112d1565b9050919050565b7f45524332303a20617070726f76652066726f6d20746865207a65726f2061646460008201527f7265737300000000000000000000000000000000000000000000000000000000602082015250565b6000611370602483610ee8565b915061137b82611314565b604082019050919050565b6000602082019050818103600083015261139f81611363565b9050919050565b7f45524332303a20617070726f766520746f20746865207a65726f20616464726560008201527f7373000000000000000000000000000000000000000000000000000000000000602082015250565b6000611402602283610ee8565b915061140d826113a6565b604082019050919050565b60006020820190508181036000830152611431816113f5565b9050919050565b7f45524332303a206275726e2066726f6d20746865207a65726f2061646472657360008201527f7300000000000000000000000000000000000000000000000000000000000000602082015250565b6000611494602183610ee8565b915061149f82611438565b604082019050919050565b600060208201905081810360008301526114c381611487565b9050919050565b7f45524332303a206275726e20616d6f756e7420657863656564732062616c616e60008201527f6365000000000000000000000000000000000000000000000000000000000000602082015250565b6000611526602283610ee8565b9150611531826114ca565b604082019050919050565b6000602082019050818103600083015261155581611519565b9050919050565b600061156782610ff2565b915061157283610ff2565b925082820390508181111561158a5761158961121f565b5b92915050565b7f45524332303a20696e73756666696369656e7420616c6c6f77616e6365000000600082015250565b60006115c6601d83610ee8565b91506115d182611590565b602082019050919050565b600060208201905081810360008301526115f5816115b9565b9050919050565b7f45524332303a207472616e6665722066726f6d20746865207a65726f2061646460008201527f7265737300000000000000000000000000000000000000000000000000000000602082015250565b6000611658602483610ee8565b9150611663826115fc565b604082019050919050565b600060208201905081810360008301526116878161164b565b9050919050565b7f45524332303a207472616e66657220746f20746865207a65726f20616464726560008201527f7373000000000000000000000000000000000000000000000000000000000000602082015250565b60006116ea602283610ee8565b91506116f58261168e565b604082019050919050565b60006020820190508181036000830152611719816116dd565b9050919050565b7f45524332303a207472616e7366657220616d6f756e742065786365656473206260008201527f616c616e63650000000000000000000000000000000000000000000000000000602082015250565b600061177c602683610ee8565b915061178782611720565b604082019050919050565b600060208201905081810360008301526117ab8161176f565b9050919050565b7f45524332303a206d696e7420746f20746865207a65726f206164647265737300600082015250565b60006117e8601f83610ee8565b91506117f3826117b2565b602082019050919050565b60006020820190508181036000830152611817816117db565b905091905056fea26469706673582212206e72b224beed2545cfea90e442c680d672aea371bb0303f16efa8e6a239a9a0f64736f6c63430008130033",
  "immutableReferences": {},
  "source": "// SPDX-License-Identifier: MIT\npragma solidity ^0.8.4;\n\nimport \"./ERC20.sol\";\n\ncontract customERC20 is my_ERC20 {\n\n    constructor(string memory _name, string memory _symbol) my_ERC20(_name, _symbol) {}\n\n    // para crear nuevos tokens y asignarle a quien ejecute la funcion:\n    function createTokens() public {\n        _mint(msg.sender, 1000);\n    }\n\n    // destruir tokens\n    function destruirTokens(address _account, uint amount) public {\n        _burn(_account, amount);\n    }\n\n}\n",
  "sourcePath": "/home/ffbs/Escritorio/work/blockchain/blockchain-carreer/bootcamp/seccion_20/contracts/customERC20.sol",
  "compiler": {
    "name": "solc",
    "version": "0.8.19+commit.7dd6d404.Emscripten.clang"
  },
  "schemaVersion": "3.4.14",
  "updatedAt": "2023-06-22T00:19:43.067Z",
  "networkType": "ethereum",
  "devdoc": {
    "kind": "dev",
    "methods": {},
    "version": 1
  },
  "userdoc": {
    "kind": "user",
    "methods": {},
    "version": 1
  }
}